:020000040800F2
:10000000005000207D320008250A0008270A000859
:10001000290A00082B0A00082D0A00080000000029
:100020000000000000000000000000002F0A00088F
:10003000310A000800000000330A0008350A0008F1
:10004000C5320008C5320008C5320008C5320008B4
:10005000C5320008C5320008C5320008C5320008A4
:10006000C53200083D0A0008470A0008C5320008EA
:10007000510A0008610A0008C5320008C5320008AC
:10008000C5320008C5320008C5320008C532000874
:10009000C5320008710A0008C5320008C5320008E0
:1000A000C5320008C5320008C5320008C532000854
:1000B000C5320008C5320008C5320008C532000844
:1000C000C5320008C5320008C5320008C532000834
:1000D000C5320008C5320008C5320008C532000824
:1000E000C5320008C5320008C53200080000000013
:1000F0000000000000000000000000000000000000
:0C01000000000000000000005FF808F1A3
:10010C0010B5054C237833B9044B13B10448AFF345
:10011C0000800123237010BD3C040020000000006F
:10012C00F033000808B5034B1BB103490348AFF388
:10013C00008008BD0000000040040020F0330008DF
:10014C004FF0FF0C1CEAD0521EBF1CEAD15392EAAE
:10015C000C0F93EA0C0F6FD01A4480EA010C40028A
:10016C0018BF5FEA41211ED04FF0006343EA5010E4
:10017C0043EA5111A0FB01310CF00040B1F5000F26
:10018C003EBF490041EAD3715B0040EA010062F1D5
:10019C007F02FD2A1DD8B3F1004F40EBC25008BFBF
:1001AC0020F00100704790F0000F0CF0004C08BFDD
:1001BC0049024CEA502040EA51207F3AC2BFD2F1AA
:1001CC00FF0340EAC250704740F400004FF00003B8
:1001DC00013A5DDC12F1190FDCBF00F000407047F2
:1001EC00C2F10002410021FA02F1C2F1200200FA30
:1001FC0002FC5FEA310040F1000053EA4C0308BFF7
:10020C0020EADC70704792F0000F00F0004C02BF47
:10021C00400010F4000F013AF9D040EA0C0093F0C2
:10022C00000F01F0004C02BF490011F4000F013B1C
:10023C00F9D041EA0C018FE70CEAD15392EA0C0F8A
:10024C0018BF93EA0C0F0AD030F0004C18BF31F0F5
:10025C00004CD8D180EA010000F00040704790F0CB
:10026C00000F17BF90F0004F084691F0000F91F06F
:10027C00004F14D092EA0C0F01D142020FD193EA35
:10028C000C0F03D14B0218BF084608D180EA0100BD
:10029C0000F0004040F0FE4040F40000704740F099
:1002AC00FE4040F44000704780F0004002E000BF88
:1002BC0081F0004142001FBF5FEA410392EA030F45
:1002CC007FEA226C7FEA236C6AD04FEA1262D2EB8F
:1002DC001363C1BFD218414048404140B8BF5B4294
:1002EC00192B88BF704710F0004F40F4000020F02D
:1002FC007F4018BF404211F0004F41F4000121F043
:10030C007F4118BF494292EA030F3FD0A2F101028C
:10031C0041FA03FC10EB0C00C3F1200301FA03F1CA
:10032C0000F0004302D5494260EB4000B0F5000FED
:10033C0013D3B0F1807F06D340084FEA310102F1AC
:10034C000102FE2A51D2B1F1004F40EBC25008BF5E
:10035C0020F0010040EA03007047490040EB000028
:10036C00013A28BFB0F5000FEDD2B0FA80FCACF129
:10037C00080CB2EB0C0200FA0CF0AABF00EBC25056
:10038C0052421843BCBFD0401843704792F0000F44
:10039C0081F4000106BF80F400000132013BB5E797
:1003AC004FEA41037FEA226C18BF7FEA236C21D00D
:1003BC0092EA030F04D092F0000F08BF0846704772
:1003CC0090EA010F1CBF0020704712F07F4F04D140
:1003DC00400028BF40F00040704712F100723CBF53
:1003EC0000F50000704700F0004343F0FE4040F47D
:1003FC00000070477FEA226216BF08467FEA23633B
:10040C000146420206BF5FEA412390EA010F40F425
:10041C00800070474FF0000304E000BF10F0004371
:10042C0048BF40425FEA000C08BF704743F0964358
:10043C0001464FF000001CE050EA010208BF704773
:10044C004FF000030AE000BF50EA010208BF7047FA
:10045C0011F0004302D5404261EB41015FEA010C0F
:10046C0002BF84460146002043F0B64308BFA3F107
:10047C008053A3F50003BCFA8CF2083AA3EBC253E9
:10048C0010DB01FA02FC634400FA02FCC2F1200208
:10049C00BCF1004F20FA02F243EB020008BF20F03F
:1004AC000100704702F1200201FA02FCC2F12002A5
:1004BC0050EA4C0021FA02F243EB020008BF20EA9A
:1004CC00DC7070474FF0FF3C06E000BF4FF0010CB2
:1004DC0002E000BF4FF0010C4DF804CD4FEA400292
:1004EC004FEA41037FEA226C18BF7FEA236C11D0DC
:1004FC0001B052EA530C18BF90EA010F58BFB2EB8F
:10050C00030088BFC81738BF6FEAE17018BF40F00E
:10051C00010070477FEA226C02D15FEA402C05D1C2
:10052C007FEA236CE4D15FEA412CE1D05DF8040B47
:10053C00704700BF844608466146FFE70FB5FFF7DA
:10054C00C9FF002848BF10F1000F0FBD4DF808ED92
:10055C00FFF7F4FF0CBF012000205DF808FB00BF83
:10056C004DF808EDFFF7EAFF34BF012000205DF8DD
:10057C0008FB00BF4DF808EDFFF7E0FF94BF01202A
:10058C0000205DF808FB00BF4DF808EDFFF7D2FF27
:10059C0094BF012000205DF808FB00BF4DF808ED6A
:1005AC00FFF7C8FF34BF012000205DF808FB00BF37
:1005BC0042000ED2B2F1FE4F0BD34FF09E03B3EBC1
:1005CC00126209D44FEA002343F0004323FA02F0ED
:1005DC0070474FF00000704712F1610F01D14202D9
:1005EC0002D14FF0FF3070474FF00000704700BF52
:1005FC0008B50D480D4B0360032343600023836053
:10060C00C3604FF4C02202614FF440124261037682
:10061C0043768376C3760377437700F003FB00B908
:10062C0008BD00F0DFF8FBE7580400200064004030
:10063C0030B587B0002302930393049305930268AB
:10064C001B4B9A4201D007B030BD03F5D633DA69A3
:10065C0042F00072DA61DA6902F000720092009ADC
:10066C009A6942F004029A619B6903F004030193B6
:10067C00019B4FF4006302930024039404940D4DEA
:10068C0002A9284600F01EFF4FF480530293022368
:10069C0003930323059302A9284600F013FF224677
:1006AC002146152000F0DEFD152000F00FFECAE7F4
:1006BC00006400400008014000B583B00E4B5A693D
:1006CC0042F001025A615B6903F001030193019B43
:1006DC00002205210C2000F0C5FD0C2000F0F6FDD9
:1006EC00002211460D2000F0BDFD0D2000F0EEFDA6
:1006FC0003B05DF804FB00BF001002402DE9F0418F
:10070C0088B000240494059406940794314B9A699C
:10071C0042F020029A619A6902F020020192019A39
:10072C009A6942F004029A619A6902F004020292F8
:10073C00029A9A6942F008029A619B6903F00803D5
:10074C000393039B244F22460221384600F0CAFF34
:10075C0001224FF40051384600F0C4FF1F4E012215
:10076C004FF44071304600F0BDFF182304931C4B2E
:10077C0005930125069504A9304600F0A3FE42F22C
:10078C0002030493059506954FF00308CDF81C80E1
:10079C0004A9384600F096FE4FF440730493059577
:1007AC000695CDF81C8004A9304600F08BFE22463D
:1007BC002146092000F056FD092000F087FD224655
:1007CC0021460A2000F04EFD0A2000F07FFD08B003
:1007DC00BDE8F08100100240000C0140000801400F
:1007EC000000211072B6FEE700B591B0002309930A
:1007FC000B930C93019302930393049305930121A0
:10080C0006914FF48032079208930A9102230D93BC
:10081C000E924FF4E0130F9306A800F08DFF80B9F1
:10082C000F23019302210291002303934FF4806262
:10083C000492059301A801F0BDF920B911B05DF83F
:10084C0004FBFFF7CFFFFFF7CDFF000008B500F06A
:10085C00C5F9FFF7C9FFFFF751FFFFF72DFFFFF7B2
:10086C00C7FE00F021F800F03DF902F0C1F802F0EB
:10087C00DDF801F051FF002002F02EF904210848A8
:10088C0001F0A8FE074C00224FF40051204600F066
:10089C0029FF01220221204600F024FFFEE700BFC1
:1008AC0060050020000C014008B50F480F4B036099
:1008BC004FF48273436000238360C36002220261A1
:1008CC00012242614FF4007282613822C2610362DC
:1008DC00436283620A23C36201F09CFA00B908BD2B
:1008EC00FFF780FFFBE700BF080500200030014048
:1008FC0070B586B0002302930393049305930268AA
:10090C002E4B9A4201D006B070BD044603F56043ED
:10091C009A6942F480529A619A6902F48052009268
:10092C00009A9A6942F004029A619B6903F00403ED
:10093C000193019BA02302930223039303230593AA
:10094C001F4E02A9304600F0BDFD40230293002546
:10095C000395049502A9304600F0B4FD19481A4BD2
:10096C000360456085608023C360056145618561D6
:10097C004FF44053C36100F0CDFCC0B9114BE3649C
:10098C005C621248124B03601023436000238360A7
:10099C008022C2600361436183614FF40053C361E1
:1009AC0000F0B8FC30B9094BA3645C62ABE7FFF70D
:1009BC0019FFE3E7FFF716FFF5E700BF0030014032
:1009CC0000080140800400201C000240C4040020E8
:1009DC003000024082B00E4B9A6942F001029A61DB
:1009EC009A6902F001020092009ADA6942F0805290
:1009FC00DA61DB6903F080530193019B054A53686C
:100A0C0023F0E06343F00073536002B0704700BF03
:100A1C000010024000000140FEE7FEE7FEE7FEE7A3
:100A2C00FEE770477047704708B500F0E9F808BD5D
:100A3C0008B5082000F05CFE08BD08B5102000F0D9
:100A4C0057FE08BD08B5024800F09AFC08BD00BF6F
:100A5C008004002008B5024800F092FC08BD00BFDD
:100A6C00C404002008B5024800F0C4FA08BD00BF59
:100A7C005804002070470368B3F1804F00D07047D2
:100A8C0082B003F50433DA6942F00102DA61DB6902
:100A9C0003F001030193019B02B0704700B587B0CE
:100AAC00002302930393049305930368B3F1804FDF
:100ABC0002D007B05DF804FB03F504339A6942F0E9
:100ACC0004029A619B6903F004030193019B0223C6
:100ADC0002930393059302A9014800F0F3FCE8E7A5
:100AEC000008014000B58FB000230A930B930C93C0
:100AFC000D93089309930193029303930493059325
:100B0C000693079321484FF0804202604360836054
:100B1C0041F28732C2600361836101F0DFFB30BBBD
:100B2C004FF480530A930AA9184801F0D4FC08BB6F
:100B3C00164801F0FFFB00BB00230893099308A99A
:100B4C00124801F0B5FDD8B960230193002302933C
:100B5C000393059304220DEB02010C4801F048FCB1
:100B6C0088B90A48FFF79AFF0FB05DF804FBFFF74E
:100B7C0039FED5E7FFF736FEDAE7FFF733FEDBE7A2
:100B8C00FFF730FEE0E7FFF72DFEEAE760050020F7
:100B9C0010B504460E4B18784FF47A73B3FBF0F390
:100BAC000C4A1068B0FBF3F000F09EFB68B90F2CF8
:100BBC0001D901200AE0002221464FF0FF3000F05D
:100BCC0051FB054B1C60002000E0012010BD00BF54
:100BDC0004000020000000200800002008B5074A8F
:100BEC00136843F010031360032000F029FB0F205F
:100BFC00FFF7CEFFFFF7EEFE002008BD00200240FD
:100C0C00034A1168034B1B780B441360704700BFF9
:100C1C00A805002004000020014B1868704700BF95
:100C2C00A8050020002800F0A18038B5044690F8F3
:100C3C002030D3B12268136843F001031360FFF72F
:100C4C00EBFF054623685A6812F0010F10D1FFF72D
:100C5C00E3FF401B0A28F5D9636A43F4003363624F
:100C6C00052384F82030012038BDFFF7E1FCE1E7D3
:100C7C001A6822F002021A60FFF7CEFF05462368BD
:100C8C005A6812F0020F0DD0FFF7C6FF401B0A285E
:100C9C00F5D9636A43F400336362052384F820308A
:100CAC000120E1E7227E012A3DD01A6822F0800261
:100CBC001A60637E012B3BD02268136823F040033B
:100CCC001360A37E012B39D02268136823F0200314
:100CDC001360E37E012B37D02268136843F01003B6
:100CEC001360237F012B35D02268136823F008038F
:100CFC001360637F012B33D02268136823F0040345
:100D0C001360A368E26813432269134362691343B7
:100D1C006268013A21681343CB61002060620123B1
:100D2C0084F82030A0E71A6842F080021A60C0E70D
:100D3C002268136843F040031360C2E7226813680B
:100D4C0043F020031360C4E72268136823F01003F8
:100D5C001360C6E72268136843F008031360C8E702
:100D6C002268136843F004031360CAE7012070473C
:100D7C00026890F82030013BDBB2012B05D9436AA5
:100D8C0043F4802343620120704770B4D2F80032E0
:100D9C0043F00103C2F800324B6903F01F0301203A
:100DAC0000FA03F3D2F81C02DC4320EA0300C2F879
:100DBC001C02C869A8B9D2F80C022040C2F80C0277
:100DCC00CE688D88486945EA0645483042F830506F
:100DDC008E680D88486945EA0645483002EBC0002C
:100DEC004560C869012819D0886970BBD2F8040223
:100DFC002040C2F80402086968BBD2F8140204400F
:100E0C00C2F81442096A01292BD0D2F8003223F01F
:100E1C000103C2F80032002070BC7047D2F80C02FB
:100E2C001843C2F80C020E688D88486945EA0645DD
:100E3C00483042F830508E688D89486945EA06453D
:100E4C00483002EBC0004560CEE7D2F804021843EC
:100E5C00C2F80402CFE7D2F814021843C2F8140205
:100E6C00D0E7D2F81C120B43C2F81C32CDE770B598
:100E7C00044690F82050EDB2012D06D0436A43F49D
:100E8C00002343620125284670BD022380F82030E0
:100E9C000268136823F001031360FFF7BDFE0646DA
:100EAC0023685B6813F0010F0CD0FFF7B5FE831BB2
:100EBC000A2BF5D9636A43F400336362052384F883
:100ECC002030E0E700256562DDE770B490F8204043
:100EDC000568AD68013CE4B2012C65D815F0E05F03
:100EEC005CD0C5F30164022C05D9436A43F40003BA
:100EFC00436201205DE00125A5401D608B68002B3D
:100F0C0039D10E68CB68056843EA465604F11803DC
:100F1C001B01EE5003680D6904F1180603EB061370
:100F2C005D600B7D012B31D0D17993791B0443EAA1
:100F3C000163517943EA0123157901682B4301EBD5
:100F4C000411C1F88C31D17893781B0443EA016306
:100F5C00517843EA0123117802680B4302EB041227
:100F6C00C2F88831026818342401135943F0010384
:100F7C00135100201DE04D6843EAC503CD68066897
:100F8C002B4304F118052D017351C3E7036803EBE0
:100F9C000613596841F480715960C5E7436A43F4FC
:100FAC0000134362012004E0436A43F4802343624C
:100FBC00012070BC704790F82030013BDBB2012B54
:100FCC0005D9436A43F480234362012070470268C9
:100FDC00536919435161002070477047704770473F
:100FEC00704770477047704770477047704770473D
:100FFC00704770472DE9F84F054603685C69D3F8D4
:10100C0004809F68D3F80CB0D3F810A0D3F81890D4
:10101C0014F001063BD017F0010616D001229A609D
:10102C0017F0020F08D117F0040F0CD117F00806B7
:10103C0006D04FF4805608E0FFF7CFFF002604E0FF
:10104C00FFF7CEFF01E04FF4006617F4807F0DD060
:10105C002B684FF480729A6017F4007F40F0868002
:10106C0017F4806F00F0868046F4005617F4803F2A
:10107C000DD02B684FF480329A6017F4003F40F08B
:10108C00838017F4802F00F0838046F4004614F020
:10109C00080F07D01BF0100F04D046F400762B6815
:1010AC001022DA6014F0040F02D01BF0080F79D173
:1010BC0014F0020F04D02B68DB6813F0030F78D107
:1010CC0014F0400F07D01AF0100F04D046F48066CD
:1010DC002B6810221A6114F0200F02D01AF0080F9E
:1010EC006BD114F0100F04D02B681B6913F0030F95
:1010FC006AD114F4003F02D018F0100F68D114F428
:10110C00803F02D018F0080F69D114F4004F7AD048
:10111C0018F0040F74D014F4807F04D019F0010F70
:10112C0001D046F0010614F4007F04D019F0020F30
:10113C0001D046F0020614F4806F04D019F0040FAD
:10114C0001D046F0040614F4006F59D019F0700960
:10115C0056D0B9F1400F65D058D8B9F1200F5ED0F8
:10116C00B9F1300F42D146F0200644E02846FFF793
:10117C0035FF7BE717F4006F02D046F4804675E725
:10118C002846FFF72EFF71E72846FFF728FF7EE77A
:10119C0017F4002F02D046F4803678E72846FFF784
:1011AC0021FF74E72B680822DA602846FFF71CFF42
:1011BC007EE72846FFF717FF82E72B6808221A61A3
:1011CC002846FFF713FF8CE72846FFF70EFF90E742
:1011DC002B6810225A602846FFF709FF8FE72B680F
:1011EC0008225A602846FFF703FF8EE7B9F1100F6B
:1011FC0001D146F008062A68936923F070039361C5
:10120C002B6804225A609EB9BDE8F88FB9F1500FD3
:10121C000BD0B9F1600FEED146F48076EBE746F0D7
:10122C001006E8E746F04006E5E746F08006E2E700
:10123C006B6A1E436E622846FFF7DBFEE4E7000094
:10124C00074AD36823F4E0631B041B0C000200F470
:10125C00E060034343F0BF6343F40033D360704753
:10126C0000ED00E030B4174BDB68C3F30223C3F18D
:10127C000704042C28BF04241D1D062D18D9033B7C
:10128C004FF0FF3505FA04F421EA0401994005FA00
:10129C0003F322EA0303194300280BDB0901C9B24B
:1012AC0000F1604000F5614080F8001330BC7047DD
:1012BC000023E5E700F00F000901C9B2024B1954F5
:1012CC00F4E700BF00ED00E014ED00E0002807DBC0
:1012DC0000F01F02400901239340024A42F82030DB
:1012EC00704700BF00E100E00138B0F1807F0AD206
:1012FC00064B5860064AF02182F8231000209860B3
:10130C0007221A6070470120704700BF10E000E010
:10131C0000ED00E060B310B402460168154B0B44BD
:10132C001548A0FB03031B099B001364134BD363E9
:10133C00022382F82130086820F47F5020F030001E
:10134C00536894682343D468234314692343546932
:10135C00234394692343D469234303430B60002044
:10136C009063012382F8213082F8200010BC704772
:10137C0001207047F8FFFDBFCDCCCCCC0000024063
:10138C0038B5C36B1A6804682568016C04238B405C
:10139C00134235D015F0040F32D0236813F0200F10
:1013AC0003D1236823F0040323600368434A934268
:1013BC0014D01432934218D01432934217D01432F2
:1013CC00934217D01432934217D01432934202D066
:1013DC004FF0806203E04FF4800200E00422384BAF
:1013EC005A60C36A03B1984738BD4022F7E74FF4FF
:1013FC008062F4E74FF48042F1E74FF48022EEE78D
:10140C0002238B4013423CD015F0020F39D02368D5
:10141C0013F0200F06D1236823F00A032360012365
:10142C0080F821300368254A934214D01432934239
:10143C001CD0143293421BD0143293421BD0143262
:10144C0093421BD01432934202D04FF0007203E04F
:10145C004FF4001200E00222194B5A60002380F86E
:10146C002030836A002BBFD09847BDE72022F3E7DA
:10147C004FF40072F0E74FF40052EDE74FF40032F6
:10148C00EAE7082303FA01F11142ADD015F0080F79
:10149C00AAD0236823F00E032360026CC16B0123D6
:1014AC0003FA02F24A60836380F82130002380F84B
:1014BC002030036B002B97D0984795E7080002402B
:1014CC0000000240F0B482B000252C46A3E07F4F10
:1014DC00BB4210D007D97E4FBB420CD007F58037EA
:1014EC00BB4208D013E0A7F58017BB4203D007F529
:1014FC007027BB4207D18B68002B58D0012B51D0E1
:10150C004261082503E0A7F58017BB42F3D0FF2EFC
:10151C004FD88446FF2E4FD8A200DCF800300F279E
:10152C00974023EA070305FA02F21343CCF8003084
:10153C004B6813F0805F6DD0664B9A6942F00102E4
:10154C009A619B6903F001030193019BA208971C0C
:10155C00614B53F8273004F00307BF004FF00F0C1A
:10156C000CFA07FC23EA0C0C5C4B98422AD003F5CE
:10157C008063984200F08A8003F58063984200F003
:10158C00878003F5806398421AD004231BE0CD6852
:10159C00BDE7CD680435BAE7CD680835B7E7CD6847
:1015AC000C35B4E702610825B1E70025AFE7042547
:1015BC00ADE700F1040CADE7A4F108029200ACE732
:1015CC00032300E00023BB4043EA0C030232424FEA
:1015DC0047F822304B6813F4803F5BD0404A1368C5
:1015EC00334313604B6813F4003F59D03C4A5368A3
:1015FC00334353604B6813F4801F57D0384A9368B9
:10160C00334393604B6813F4001F55D0344AD368AE
:10161C001E43D66001340B6833FA04F252D0012217
:10162C00A24003EA020632EA0303F3D14B68122B01
:10163C003FF64DAF122B3FF66AAF01A757F823F0D8
:10164C00031500089B150008A5150008B715000820
:10165C001B1500081B1500081B1500081B1500089E
:10166C001B1500081B1500081B1500081B1500088E
:10167C001B1500081B1500081B1500081B1500087E
:10168C001B1500089F150008AB15000801239AE7ED
:10169C00022398E7124A136823EA06031360A1E7B2
:1016AC000F4A536823EA06035360A3E70C4A936876
:1016BC0023EA06039360A5E7094AD36823EA0606E2
:1016CC00D660A7E702B0F0BC704700BF0000221044
:1016DC0000003110001002400000014000080140E1
:1016EC00000401400AB101617047090401617047AF
:1016FC0008B5054B5B69034200D108BD024B58612C
:10170C0001F03AF8F9E700BF0004014082B0084B41
:10171C001B68084AA2FB03235B0A00FB03F301933B
:10172C0000BF019B5A1E0192002BF9D102B07047E9
:10173C0000000020D34D6210002800F0F18170B53C
:10174C0082B00446036813F0010F2CD0AA4B5B68DF
:10175C0003F00C03042B1DD0A74B5B6803F00C03A8
:10176C00082B12D06368B3F5803F41D0002B55D1C4
:10177C0003F1804303F504331A6822F480321A60B3
:10178C001A6822F480221A6037E09B4B5B6813F4D2
:10179C00803FE7D0984B1B6813F4003F03D063687D
:1017AC00002B00F0BF81236813F0020F75D0924B11
:1017BC005B6813F00C0F5FD08F4B5B6803F00C036E
:1017CC00082B54D02369002B00F089808B4B01220D
:1017DC001A60FFF721FA0546874B1B6813F0020FBE
:1017EC0074D1FFF719FA401B0228F5D903209EE1AA
:1017FC00814A136843F480331360636843B3FFF783
:10180C000BFA05467C4B1B6813F4003FCBD1FFF75A
:10181C0003FA401B6428F5D9032088E1B3F5A02F07
:10182C0009D0754B1A6822F480321A601A6822F4B7
:10183C0080221A60E1E703F18043A3F53C331A6878
:10184C0042F480221A601A6842F480321A60D4E79B
:10185C00FFF7E2F90546684B1B6813F4003FA2D072
:10186C00FFF7DAF9401B6428F5D903205FE1624BDE
:10187C005B6813F4803FA5D15F4B1B6813F0020F1C
:10188C0003D02369012B40F04F815B4A136823F08E
:10189C00F803616943EAC1031360236813F0080F6E
:1018AC0032D0A369002B45D0554B01221A60FFF7AB
:1018BC00B3F90546504B5B6A13F0020F21D1FFF7C9
:1018CC00ABF9401B0228F5D9032030E14A4A1368D2
:1018DC0023F0F803616943EAC1031360DDE7474B6A
:1018EC0000221A60FFF798F90546434B1B6813F06A
:1018FC00020FD2D0FFF790F9401B0228F5D9032034
:10190C0015E10120FFF702FF236813F0040F00F02C
:10191C009780394BDB6913F0805F1DD1364BDA6948
:10192C0042F08052DA61DB6903F080530193019B32
:10193C00012512E0324B00221A60FFF76DF90546C3
:10194C002D4B5B6A13F0020FDED0FFF765F9401BDD
:10195C000228F5D90320EAE000252A4B1B6813F472
:10196C00807F11D0E368012B22D0002B38D103F1FA
:10197C00804303F504331A6A22F001021A621A6AD0
:10198C0022F004021A6218E01E4A136843F48073B2
:10199C001360FFF741F906461A4B1B6813F4807F5E
:1019AC00E0D1FFF739F9801B6428F5D90320BEE09C
:1019BC00114A136A43F001031362E36873B3FFF730
:1019CC002BF906460C4B1B6A13F0020F37D1FFF7AD
:1019DC0023F9801B41F288339842F3D90320A6E007
:1019EC00052B11D0044B1A6A22F001021A621A6AF2
:1019FC0022F004021A62E0E70010024000004242AA
:101A0C0080044242007000404D4B1A6A42F00402BE
:101A1C001A621A6A42F001021A62CEE7FFF7FCF86A
:101A2C000646474B1B6A13F0020F08D0FFF7F4F879
:101A3C00801B41F288339842F3D9032077E0E5B953
:101A4C00E369002B72D03E4A526802F00C02082A5D
:101A5C0056D0022B17D03B4B00221A60FFF7DCF854
:101A6C000446374B1B6813F0007F47D0FFF7D4F8C0
:101A7C00001B0228F5D9032059E0314AD36923F021
:101A8C008053D361DCE72F4B00221A60FFF7C4F8B8
:101A9C0005462B4B1B6813F0007F06D0FFF7BCF8F4
:101AAC00401B0228F5D9032041E0236AB3F5803F9F
:101ABC001AD023494B6823F47413226A606A0243D8
:101ACC0013434B601F4B01221A60FFF7A5F8044625
:101ADC001B4B1B6813F0007F0ED1FFF79DF8001B0A
:101AEC000228F5D9032022E0154A536823F4003369
:101AFC00A1680B435360DCE7002018E0002016E0DF
:101B0C00012B16D00E4B5B6803F48031226A914294
:101B1C0011D103F47013626A93420ED1002006E0D7
:101B2C0001207047012002E0012000E0002002B0FB
:101B3C0070BD0120FBE70120F9E70120F7E700BFAA
:101B4C00001002406000424286B0164B0FCB0DF1E4
:101B5C00180C0CE90F0040F20123ADF80430124BC5
:101B6C005B6803F00C02082A02D0104806B07047DC
:101B7C00C3F38342624412F8102C13F4803F0CD050
:101B8C00094B5B68C3F34043634413F8143C0748A8
:101B9C0000FB02F0B0FBF3F0E8E7054800FB02F0B5
:101BAC00E4E700BF203400080010024000127A0065
:101BBC0000093D00002800F0A08070B50D460446D9
:101BCC00524B1B6803F007038B420BD24F4A13682E
:101BDC0023F007030B431360136803F007038B42D6
:101BEC0040F08D80236813F0020F17D013F0040F10
:101BFC0004D0474A536843F4E0635360236813F0FE
:101C0C00080F04D0424A536843F460535360404A6F
:101C1C00536823F0F003A1680B435360236813F05F
:101C2C00010F31D06368012B20D0022B25D0384A0C
:101C3C00126812F0020F64D035494A6822F0030290
:101C4C0013434B60FEF7E8FF0646314B5B6803F02D
:101C5C000C036268B3EB820F16D0FEF7DDFF801B1E
:101C6C0041F288339842F0D9032045E0284A1268A3
:101C7C0012F4003FE0D101203EE0254A126812F038
:101C8C00007FD9D1012037E0204B1B6803F00703FC
:101C9C00AB420AD91D4A136823F007032B43136088
:101CAC00136803F00703AB422DD1236813F0040F24
:101CBC0006D0174A536823F4E063E1680B43536082
:101CCC00236813F0080F07D0114A536823F46053AC
:101CDC00216943EAC1035360FFF736FF0C4B5B6885
:101CEC00C3F303130B4AD35CD8400B4B18600B4B5C
:101CFC001868FEF74DFF002070BD012070470120D1
:101D0C00FAE70120F8E70120F6E700BF00200240C7
:101D1C0000100240103400080000002008000020D1
:101D2C002DE9F04782B00546884617461E46FEF759
:101D3C0073FF0A9B1B1A03EB0609FEF76DFF824625
:101D4C002A4B1B68C3F3CB3309FB03F301932B68BA
:101D5C009C6838EA04030CBF01240024BC4240D028
:101D6C00B6F1FF3FF3D0FEF757FFA0EB0A00484552
:101D7C000AD2B9F1000F07D0019A02B14A46019B71
:101D8C00013B01939146E2E72A68536823F0E00394
:101D9C0053606B68B3F5827F0BD0AB6AB3F5005F11
:101DAC0014D0012385F85130002385F850300320DE
:101DBC0018E0AB68B3F5004F02D0B3F5806FECD1EF
:101DCC002A68136823F040031360E6E72A68136857
:101DDC0023F4005313602A68136843F40053136010
:101DEC00DFE7002002B0BDE8F08700BF0000002054
:101DFC0010B582B004460B46009200228021FFF7FA
:101E0C008FFF08B902B010BD636D43F0200363650A
:101E1C000320F7E7002856D010B50446436A33B9BF
:101E2C004368B3F5827F05D00023C36102E0002331
:101E3C00036143610023A36294F85130002B3CD022
:101E4C00022384F851302268136823F04003136096
:101E5C00636803F48273A26802F404421343E268D9
:101E6C0002F400621343226902F002021343626916
:101E7C0002F001021343A26902F400721343E269F7
:101E8C0002F038021343226A02F080021343A26A62
:101E9C0002F40052216813430B60638B226803F039
:101EAC00040353602268D36923F40063D3610020D8
:101EBC006065012384F8513010BD84F85030204601
:101ECC00FEF716FDBCE7012070472DE9F04383B007
:101EDC001F460A9D90F85030012B00F010810446EB
:101EEC0088469146012380F85030FEF795FE064651
:101EFC0094F85130DBB26268012B0AD0B2F5827FC4
:101F0C0040F0E380A268002A40F0E980042B40F006
:101F1C00E880B8F1000F00F0E680B9F1000F00F096
:101F2C00E480002F00F0E38094F85130DBB2042BF6
:101F3C0002D0052384F8513000236365C4F838902F
:101F4C00E787A787C4F83080E786A7862364636495
:101F5C0023681A6812F0400F03D11A6842F040024D
:101F6C001A60E368B3F5006F11D063680BB1012FF1
:101F7C000BD1226B236812781A73236B0133236302
:101F8C00E38E9BB2013B9BB2E38601276BE0636857
:101F9C000BB1012F0BD1226B23681288DA60236BF3
:101FAC0002332363E38E9BB2013B9BB2E386012792
:101FBC001CE023689A6812F0010F0ED0E28F92B2E7
:101FCC005AB1DA68A36B1A80A36B0233A363E38F55
:101FDC009BB2013B9BB2E3870127FEF71DFE801BE2
:101FEC00A84203D3B5F1FF3F40F08380E38E9BB250
:101FFC001BB9E38F9BB2002B53D023689A6812F065
:10200C00020FD6D0E28E92B2002AD2D0002FD0D0BE
:10201C00226B1288DA60236B02332363E38E9BB24C
:10202C00013B9BB2E3860027C3E723689A6812F052
:10203C00010F0ED0E28F92B25AB1DA68A36B1A700C
:10204C00A36B0133A363E38F9BB2013B9BB2E3878A
:10205C000127FEF7E1FD831BAB4202D3B5F1FF3F35
:10206C0049D1002D49D0E38E9BB213B9E38F9BB2BB
:10207C00BBB123689A6812F0020FD6D0E28E92B2EE
:10208C00002AD2D0002FD0D0226B12781A73236B77
:10209C0001332363E38E9BB2013B9BB2E3860027A3
:1020AC00C3E7324629462046FFF7A2FE48B9A3688B
:1020BC0063B901932368DA6801929B680193019BD1
:1020CC0004E020236365012000E00220012384F852
:1020DC005130002384F8503003B0BDE8F083022067
:1020EC00F4E70220F2E70120F0E70120EEE70120FF
:1020FC00ECE70320EAE70320E8E70320E6E7022009
:10210C00EAE7000070B4036A23F001030362036A78
:10211C004668826922F073020C6844EA020523F0D7
:10212C0002028B6813430D4CA04209D00B4CA04209
:10213C000DD0466085614A684263036270BC70478B
:10214C0023F00803CA68134323F00403EEE726F4D4
:10215C0040764A6932438E691643EAE7002C014007
:10216C0030B4036A23F480730362036A4568C2695E
:10217C0022F073020C68224323F400738C6843EA48
:10218C0004230F4CA04209D00D4CA0420ED0456048
:10219C00C2614A68C263036230BC704723F40063B7
:1021AC00CC6843EA042323F48063EDE725F440551F
:1021BC004C6945EA04158C6945EA0415E7E700BF4C
:1021CC00002C014030B4036A23F480530362036A89
:1021DC004468C26922F4E6420D6842EA052223F4FF
:1021EC0000538D6843EA0533074DA84206D044607E
:1021FC00C2614A680264036230BC704724F48044B4
:10220C004D6944EA8514F2E7002C014030B4036AAE
:10221C00056A25F001050562846924F0F00444EA9E
:10222C00021423F00A030B438461036230BC704731
:10223C0030B4056A25F0100505628469036A24F43C
:10224C00704444EA023423F0A00343EA011384618E
:10225C00036230BC7047836823F070030B4343F078
:10226C00070383607047704703681B4A90420AD08B
:10227C00B0F1804F07D0A2F59432904203D002F512
:10228C008062904203D123F070034A681343124AD0
:10229C0090420AD0B0F1804F07D0A2F59432904210
:1022AC0003D002F58062904203D123F44073CA68D4
:1022BC00134323F080034A69134303608B68C362A2
:1022CC000B688362044B984202D001234361704730
:1022DC000B690363F9E700BF002C014040B310B554
:1022EC00044690F83D30F3B1022384F83D3021468A
:1022FC0051F8040BFFF7B8FF012384F8463084F83B
:10230C003E3084F83F3084F8403084F8413084F813
:10231C00423084F8433084F8443084F8453084F8F3
:10232C003D30002010BD80F83C30FEF7A4FBDBE70D
:10233C000120704740B310B5044690F83D30F3B11E
:10234C00022384F83D30214651F8040BFFF78CFF33
:10235C00012384F8463084F83E3084F83F3084F80A
:10236C00403084F8413084F8423084F8433084F8AB
:10237C00443084F8453084F83D30002010BD80F89E
:10238C003C30FFF770FFDBE70120704730B4036A85
:10239C0023F010030362036A4468826922F4E64264
:1023AC000D6842EA052223F020038D6843EA0513E9
:1023BC000E4DA84209D00D4DA8420ED0446082614A
:1023CC004A688263036230BC704723F08003CD6897
:1023DC0043EA051323F04003EDE724F440644D6910
:1023EC0044EA85048D6944EA8504E7E7002C014042
:1023FC0038B590F83C30012B60D004460D460123D3
:10240C0080F83C300C2A1AD8DFE802F007191919A9
:10241C001D1919193119191944000068FFF772FEBA
:10242C002268936943F0080393612268936923F04F
:10243C00040393612268936929690B43936100201B
:10244C0084F83C0038BD0068FFF7A0FF2268936950
:10245C0043F4006393612268936923F4806393616E
:10246C0022689369296943EA01239361E7E70068CD
:10247C00FFF776FE2268D36943F00803D361226824
:10248C00D36923F00403D3612268D36929690B4310
:10249C00D361D4E70068FFF795FE2268D36943F453
:1024AC000063D3612268D36923F48063D36122680B
:1024BC00D369296943EA0123D361C0E70220C1E74C
:1024CC0010B4846824F47F4442EA03220A43224372
:1024DC00826010BC704790F83C30012B66D010B570
:1024EC000446012380F83C30022380F83D3002681A
:1024FC00936823F47F4323F0770393600B68602B7E
:10250C0040D022D8402B47D00BD9502B0ED1CA68C3
:10251C0049680068FFF77AFE50212068FFF79BFEA0
:10252C0004E0202B0CD008D9302B09D0012384F8DF
:10253C003D30002084F83C0010BD0BB1102BF5D1C0
:10254C0019462068FFF787FEF0E7702B0ED0B3F525
:10255C00005FEBD1CB684A6889680068FFF7B0FF71
:10256C002268936843F480439360DFE7CB684A6842
:10257C0089680068FFF7A4FF2268936843F077032B
:10258C009360D3E7CA6849680068FFF751FE602181
:10259C002068FFF760FEC9E7CA6849680068FFF762
:1025AC0035FE40212068FFF756FEBFE7022070473A
:1025BC0010B401F01F01012303FA01F4036A23EAAA
:1025CC0004030362036A02FA01F10B43036210BCB9
:1025DC007047000010B50446084651BB94F83E30D5
:1025EC00DBB2013B18BF0123002B5BD1002839D192
:1025FC00022384F83E30012201462068FFF7D8FF01
:10260C0023682A4A93423DD02368284A93423ED0FD
:10261C00B3F1804F3BD0A2F59432934237D002F500
:10262C008062934233D01A6842F001021A60002093
:10263C0039E0042908D008290DD094F84130DBB2D8
:10264C00013B18BF0123CFE794F83F30DBB2013BCD
:10265C0018BF0123C8E794F84030DBB2013B18BF28
:10266C000123C1E7042805D0082807D0022384F8E9
:10267C004130C0E7022384F83F30BCE7022384F8E2
:10268C004030B8E75A6C42F400425A64BCE79A688E
:10269C0002F00702062A07D01A6842F001021A60FB
:1026AC00002000E0012010BD0020FCE7002C0140C0
:1026BC0090F83C30012B2BD030B4012380F83C3007
:1026CC00022380F83D3003685C689D6824F0700438
:1026DC000A6822435A6003680E4A93420AD0B3F147
:1026EC00804F07D0A2F59432934203D002F580625A
:1026FC00934204D125F080054A6815439D6001235F
:10270C0080F83D30002380F83C30184630BC7047D0
:10271C0002207047002C014000B583B00F4B009392
:10272C000F4B104A0021104800F0A0F800F045FDB6
:10273C000028FBD10D481023C361FFF76BFB48B990
:10274C000B4B01221A700B4B00229A60DA6003B01B
:10275C005DF804FBFEF746F8F2E700BF0080894500
:10276C0000309C4534340008D005002008050020BA
:10277C00CC050020B405002070B582B0102803D021
:10278C00082832D002B070BD304B1B78002BF9D02A
:10279C002F4C4FF480732360082323612D4D284662
:1027AC0000F04BFDAE1D304600F038FD01AB2A4663
:1027BC0021462948FEF789FB304600F017FD0146FB
:1027CC00264C274A204600F06CF80021206AFDF7C1
:1027DC00C7FE38B9214B186AFDF7EAFE80B200F04B
:1027EC007BF9CFE700222262F4E7184B1B78002B11
:1027FC00C8D0174B40F201121A6007221A61154813
:10280C0000F027FD174B1B78012B13D000224FF43F
:10281C0000511548FEF766FF0E4B00229A71114AC3
:10282C001378013B137001AB0A4A09490A48FEF7B9
:10283C004CFBA7E70122074B9A710A4B0521197033
:10284C004FF400510848FEF74DFFECE7CC05002093
:10285C00B4050020AC05002058040020D005002051
:10286C00000034420C000020000C0140C0B110B438
:10287C00A2B1017011684160516881609268C260B8
:10288C000361019B4361002383634363036303621E
:10289C00C3628362436243640364C36310BC7047C6
:1028AC007047002800F0A2802DE9F8430446076C1D
:1028BC004764C66B06648261C1611046FDF7F8FC83
:1028CC000546E0632378002B46D16168FDF738FCA0
:1028DC0080466062A1682846FDF732FCA16AFDF7CC
:1028EC00E9FC0746A062636BA363236B6363314609
:1028FC002846FDF7DDFC2063E168FDF721FC054669
:10290C00E062666931463846FDF748FE88B1A6623A
:10291C00A16A4046FDF7CEFC01462846FDF7CAFCED
:10292C000546206226693146FDF738FE58B126620D
:10293C0014E006F1004631463846FDF711FE00283A
:10294C00E6D0A662E4E706F1004631462846FDF7DC
:10295C0007FE18B1266201E0012B02D0206ABDE807
:10296C00F883D4F804803146FDF7A2FC01464046BA
:10297C00FDF7E6FB80466062A1682846FDF7E0FBA8
:10298C008146A062636BA363236B6363314630465D
:10299C00FDF790FC01462846FDF78AFC01463846B7
:1029AC00FDF788FC2063E168FDF7CAFB0546E06291
:1029BC0049464046FDF77EFC01462846FDF77AFC69
:1029CC00216AFDF777FC0546206226693146FDF742
:1029DC00E5FD08B12662C1E706F1004631462846FE
:1029EC00FDF7BEFD0028B9D02662B7E7002070477E
:1029FC0010B58AB001220892002306930792009327
:102A0C0001930293039305930493074C6946204664
:102A1C00FEF7AEF92046FEF72AFA02212046FEF711
:102A2C00CAFA0AB010BD00BF58040020074B1B683F
:102A3C00074AA2FB0312920C06490A70064AA2FB33
:102A4C0003239B09054A1360704700BF0000002058
:102A5C0083DE1B431C060020D34D62101806002099
:102A6C0030B40C4B5D680C4A147800FB04F49B6882
:102A7C00002104E0E81A02441144A14208D21A468B
:102A8C00044B9B689A42FBD0F4D9D21A1144F4E758
:102A9C0030BC704710E000E01C06002030B40C4B3A
:102AAC005D680C4A146804FB00F49B68002104E088
:102ABC00E81A02441144A14208D21A46044B9B68FE
:102ACC009A42FBD0F4D9D21A1144F4E730BC7047C7
:102ADC0010E000E0180600204FF080439863704728
:102AEC007047704708B5FFF7D9FF08BD08B5FFF769
:102AFC00B7FF08BD08B500224FF480710148FEF7FE
:102B0C00F1FD08BD0008014008B501224FF48071A9
:102B1C000148FEF7E7FD08BD0008014008B500229A
:102B2C004FF400710148FEF7DDFD08BD00080140BF
:102B3C0008B501224FF400710148FEF7D3FD08BD22
:102B4C000008014000B587B08DF80F004FF47A7380
:102B5C00009301230DF117020DF10F010348FFF74C
:102B6C00B4F99DF8170007B05DF804FB08050020C8
:102B7C0010B50C46FFF7E6FF2046FFF7E3FF10BD4C
:102B8C0010B50C4640F08000FFF7DCFF5520FFF736
:102B9C00D9FF207010BD38B50D46144640F08000AA
:102BAC00FFF7D0FF3CB15520FFF7CCFF05F8010B28
:102BBC00013CE4B2F6E738BDF0B583B000238DF8E4
:102BCC000730FFF797FF8020FFF7BCFF5520FFF77A
:102BDC00B9FF5520FFF7B6FF8DF80700FFF794FFFC
:102BEC009620FFF783FFFFF785FF8020FFF7AAFFF2
:102BFC005520FFF7A7FF5520FFF7A4FF8DF807001E
:102C0C00FFF782FF9620FFF771FFFFF773FFB621E6
:102C1C007E20FFF7ADFFFFF777FF5020FFF762FF35
:102C2C00FFF768FF8020FFF78DFF5520FFF78AFF25
:102C3C005520FFF787FF8DF80700FFF765FF9620FB
:102C4C00FFF754FFFFF756FF8020FFF77BFF55205F
:102C5C00FFF778FF5520FFF775FF8DF80700FFF79A
:102C6C0053FF9620FFF742FF9DF80730DBB21E2B77
:102C7C0037D10024052C31D8FFF73CFF1A4A04EB5E
:102C8C004403D1184D78D65C29463046FFF770FFC7
:102C9C00FFF73AFF9620FFF729FFFFF72BFF46F0CF
:102CAC008000FFF74FFF5520FFF74CFF5520FFF733
:102CBC0049FF8DF80700FFF727FF9620FFF716FF57
:102CCC009DF80730DBB29D4202D10134E4B2D1E76A
:102CDC0004EB4407044B1F44B87800E0002003B019
:102CEC00F0BDFF20FBE700BF54340008F0B583B003
:102CFC0000248DF80740FFF711FF0DF10701204666
:102D0C00FFF73EFFFFF714FF9620FFF7EFFEFFF7EC
:102D1C0005FF0DF107012046FFF732FFFFF708FF13
:102D2C009620FFF7E3FEFFF7F9FEB6211420FFF71C
:102D3C001FFFFFF7FDFE5020FFF7D4FEFFF7EEFE5E
:102D4C000DF107012046FFF71BFFFFF7F1FE962060
:102D5C00FFF7CCFEFFF7E2FE0DF107012046FFF76F
:102D6C000FFFFFF7E5FE9620FFF7C0FE9DF807303A
:102D7C000F2B2ED1052C29D8FFF7D0FE164A04EBC9
:102D8C004403D1184D78D65C29463046FFF7F0FE47
:102D9C00FFF7CEFE9620FFF7A9FEFFF7BFFE0DF161
:102DAC0007013046FFF7ECFEFFF7C2FE9620FFF757
:102DBC009DFE9DF807309D4202D10134E4B2D9E763
:102DCC0004EB4407044B1F44B87800E0002003B028
:102DDC00F0BDFF20FBE700BF68340008F0B587B0FA
:102DEC00BE4B93E803000190ADF8081000238DF85A
:102DFC000330FFF77FFE8020FFF7A4FE5520FFF77E
:102E0C00A1FE5520FFF79EFE8DF80300FFF77CFE18
:102E1C009620FFF76BFEFFF76DFE8020FFF792FE0A
:102E2C005520FFF78FFE5520FFF78CFE8DF8030021
:102E3C00FFF76AFE9620FFF759FEFFF75BFEB621FF
:102E4C007E20FFF795FEFFF75FFE5020FFF74AFE4E
:102E5C00FFF750FE8020FFF775FE5520FFF772FE3E
:102E6C005520FFF76FFE8DF80300FFF74DFE9620FF
:102E7C00FFF73CFEFFF73EFE8020FFF763FE552078
:102E8C00FFF760FE5520FFF75DFE8DF80300FFF79E
:102E9C003BFE9620FFF72AFE9DF80330DBB21E2B7B
:102EAC0040F00F810024032C34D8FFF723FE8C4A0A
:102EBC0004EB4403D118D65C4D7829463046FFF715
:102ECC0057FEFFF721FE9620FFF710FEFFF712FECC
:102EDC0046F08000FFF736FE5520FFF733FE5520F5
:102EEC00FFF730FE8DF80300FFF70EFE9620FFF77C
:102EFC00FDFD9DF80330DBB29D4205D15020FFF75C
:102F0C00F1FD0134E4B2CEE704EB4407744B1F44EB
:102F1C00BC78D7E00024012C66D8FFF7EBFD251D0B
:102F2C006F4A05EB4503D118D75C4E7831463846CD
:102F3C00FFF71EFEFFF7E8FD9620FFF7D7FDFFF722
:102F4C00D9FD47F08000FFF7FDFD5520FFF7FAFD96
:102F5C005520FFF7F7FD8DF80300FFF7D5FD962000
:102F6C00FFF7C4FD9DF80330DBB29E4236D15020F2
:102F7C00FFF7B8FDFFF7BEFD9220FFF7E3FD062239
:102F8C0001A91220FFF707FEFFF7BEFD9DF80530E3
:102F9C001B021BB29DF80420134304EB440206A948
:102FAC0001EB420222F80C3C9DF807301B021BB2CD
:102FBC009DF806100B4322F80A3C9DF809301B02C1
:102FCC001BB29DF80820134304EB440206A901EB45
:102FDC00420222F8083C0134E4B29CE705EB4505BB
:102FEC003F4B1D44AC786DE0FFF784FD00216D2054
:102FFC00FFF7BEFDFFF788FD9620FFF777FDFFF783
:10300C0079FDED20FFF79EFD5520FFF79BFD552028
:10301C00FFF798FD8DF80300FFF776FD9620FFF77C
:10302C0065FD9DF8033003F0FF04002B4DD1FFF735
:10303C0061FDB6217E20FFF79BFDFFF765FD50205B
:10304C00FFF750FDBDF90C30BDF912209B1A40F270
:10305C00545293423BDDBDF90E30BDF914209B1A3E
:10306C0040F25452934234DDBDF91030BDF91620B4
:10307C009B1AB3F52A7F2EDBFFF73CFD8020FFF770
:10308C0061FD5520FFF75EFD5520FFF75BFD8DF8C8
:10309C000300FFF739FD9620FFF728FDFFF72AFD07
:1030AC008020FFF74FFD5520FFF74CFD5520FFF713
:1030BC0049FD8DF80300FFF727FD9620FFF716FD5D
:1030CC0000E0FF24204607B0F0BD0424FAE780247A
:1030DC00F8E78024F6E78024F4E700BF0834000802
:1030EC004034000810B582B000248DF80740FFF77B
:1030FC0015FD0DF107012046FFF742FDFFF718FD06
:10310C009620FFF7F3FCFFF709FD0DF107012046B0
:10311C00FFF736FDFFF70CFD9620FFF7E7FCFFF7F6
:10312C00FDFCB6211420FFF723FDFFF701FD502015
:10313C00FFF7D8FCFFF7F2FC0DF107012046FFF773
:10314C001FFDFFF7F5FC9620FFF7D0FCFFF7E6FC20
:10315C000DF107012046FFF713FDFFF7E9FC962060
:10316C00FFF7C4FCFFF7DAFC01213C20FFF700FD60
:10317C00FFF7DEFC5020FFF7B5FCFFF7CFFC0DF19D
:10318C0007013C20FFF7FCFCFFF7D2FC9620FFF771
:10319C00ADFC0134E4B29DF8070010F0020F01D130
:1031AC00092CEAD90A2C04D010F0040003D102B087
:1031BC0010BD4020FBE74020F9E710B5FFF790FC6D
:1031CC00FFF78FFCFFF70AFE38B18024FFF78AFF68
:1031DC0038B144F04000C0B210BDFFF7EDFC04461E
:1031EC00F4E7FFF783FD2043C0B2F5E708B5037899
:1031FC004078400940EAC300B0F5806F01DBA0F5D0
:10320C000060FDF70BF94FF07851FCF799FF02497C
:10321C00FDF750F808BD00BF0000B84110B50446DA
:10322C00FFF768FCA220FFF78DFC0222214622202A
:10323C00FFF7B1FCFFF768FC10BD10B50446FFF7B3
:10324C006DFC062221460220FFF7A5FCFFF770FC5F
:10325C0010BD10B50446FFF74DFC9220FFF772FC31
:10326C00062221461220FFF796FCFFF74DFC10BDFD
:10327C000C480D490D4A002302E0D458C4500433C5
:10328C00C4188C42F9D30A4A0A4C002301E013609B
:10329C000432A242FBD3FDF7EDFB00F00FF8FDF773
:1032AC00D5FA7047000000203C0400208C34000844
:1032BC003C04002044060020FEE7000070B50D4ED3
:1032CC000D4D761BB61006D0002455F8043B013486
:1032DC009847A642F9D1094E094D00F083F8761BA8
:1032EC00B61006D0002455F8043B01349847A6428A
:1032FC00F9D170BD8034000880340008883400088F
:10330C0080340008024B13B1024800F005B8704736
:10331C000000000031330008002301461A4618460D
:10332C0000F01AB838B5084B084D5B1B9C1007D041
:10333C00043B1D44013C55F804399847002CF9D145
:10334C00BDE8384000F054B88C34000888340008CC
:10335C00704700BF704700BF2DE9F047DFF880A031
:10336C000646DAF8000098460F469146FFF7F0FF44
:10337C001A4B1B68D3F8484124B365681F2D26DC13
:10338C005EB96B1C0235DAF80000636044F82570F6
:10339C00FFF7E0FF0020BDE8F087012304EB850177
:1033AC00C1F88890D4F88821AB401A43022EC4F897
:1033BC008821C1F80881E4D1D4F88C211343C4F8D6
:1033CC008C31DEE703F5A674C3F84841D5E7DAF88B
:1033DC000000FFF7BFFF4FF0FF30DCE77C34000844
:1033EC0038040020F8B500BFF8BC08BC9E467047F6
:0C33FC00F8B500BFF8BC08BC9E46704746
:1034080000000000000000000000000000000000B4
:103418000102030406070809020304050607080950
:103428000A0B0C0D0E0F1010000000000000C8441D
:10343800CDCC4C3E0000000040AC037D04014103AC
:10344800057C00026D0D026D090200007D04017CFF
:10345800000240AB03410105530806580407000069
:103468000F000810820911000A15800B16000C18AD
:08347800010D0000100000200E
:083480001133000831010008BE
:043488000D0100082A
:10348C000024F40001000000100000000500000002
:10349C0000000000FC02002064030020CC0300208C
:1034AC000000000000000000000000000000000010
:1034BC000000000000000000000000000000000000
:1034CC0000000000000000000000000000000000F0
:1034DC0000000000000000000000000000000000E0
:1034EC0000000000000000000000000000000000D0
:1034FC0000000000000000000000000000000000C0
:10350C0000000000000000000000000000000000AF
:10351C00000000000000000000000000000000009F
:10352C00000000000000000000000000000000008F
:10353C00000000000000000001000000000000007E
:10354C000E33CDAB34126DE6ECDE05000B00000043
:10355C00000000000000000000000000000000005F
:10356C00000000000000000000000000000000004F
:10357C00000000000000000000000000000000003F
:10358C00000000000000000000000000000000002F
:0C38BC00000000000000000020060020BA
:040000050800327D40
:00000001FF
